{
  "_format": "hh-sol-artifact-1",
  "contractName": "RoboPunksNFT",
  "sourceName": "contracts/RoboPunksNFT.sol",
  "abi": [
    {
      "inputs": [],
      "stateMutability": "payable",
      "type": "constructor"
    },
    {
      "anonymous": false,
      "inputs": [
        {
          "indexed": true,
          "internalType": "address",
          "name": "owner",
          "type": "address"
        },
        {
          "indexed": true,
          "internalType": "address",
          "name": "approved",
          "type": "address"
        },
        {
          "indexed": true,
          "internalType": "uint256",
          "name": "tokenId",
          "type": "uint256"
        }
      ],
      "name": "Approval",
      "type": "event"
    },
    {
      "anonymous": false,
      "inputs": [
        {
          "indexed": true,
          "internalType": "address",
          "name": "owner",
          "type": "address"
        },
        {
          "indexed": true,
          "internalType": "address",
          "name": "operator",
          "type": "address"
        },
        {
          "indexed": false,
          "internalType": "bool",
          "name": "approved",
          "type": "bool"
        }
      ],
      "name": "ApprovalForAll",
      "type": "event"
    },
    {
      "anonymous": false,
      "inputs": [
        {
          "indexed": true,
          "internalType": "address",
          "name": "previousOwner",
          "type": "address"
        },
        {
          "indexed": true,
          "internalType": "address",
          "name": "newOwner",
          "type": "address"
        }
      ],
      "name": "OwnershipTransferred",
      "type": "event"
    },
    {
      "anonymous": false,
      "inputs": [
        {
          "indexed": true,
          "internalType": "address",
          "name": "from",
          "type": "address"
        },
        {
          "indexed": true,
          "internalType": "address",
          "name": "to",
          "type": "address"
        },
        {
          "indexed": true,
          "internalType": "uint256",
          "name": "tokenId",
          "type": "uint256"
        }
      ],
      "name": "Transfer",
      "type": "event"
    },
    {
      "inputs": [
        {
          "internalType": "address",
          "name": "to",
          "type": "address"
        },
        {
          "internalType": "uint256",
          "name": "tokenId",
          "type": "uint256"
        }
      ],
      "name": "approve",
      "outputs": [],
      "stateMutability": "nonpayable",
      "type": "function"
    },
    {
      "inputs": [
        {
          "internalType": "address",
          "name": "owner",
          "type": "address"
        }
      ],
      "name": "balanceOf",
      "outputs": [
        {
          "internalType": "uint256",
          "name": "",
          "type": "uint256"
        }
      ],
      "stateMutability": "view",
      "type": "function"
    },
    {
      "inputs": [
        {
          "internalType": "uint256",
          "name": "tokenId",
          "type": "uint256"
        }
      ],
      "name": "getApproved",
      "outputs": [
        {
          "internalType": "address",
          "name": "",
          "type": "address"
        }
      ],
      "stateMutability": "view",
      "type": "function"
    },
    {
      "inputs": [
        {
          "internalType": "address",
          "name": "owner",
          "type": "address"
        },
        {
          "internalType": "address",
          "name": "operator",
          "type": "address"
        }
      ],
      "name": "isApprovedForAll",
      "outputs": [
        {
          "internalType": "bool",
          "name": "",
          "type": "bool"
        }
      ],
      "stateMutability": "view",
      "type": "function"
    },
    {
      "inputs": [],
      "name": "isPublicMintEnabled",
      "outputs": [
        {
          "internalType": "bool",
          "name": "",
          "type": "bool"
        }
      ],
      "stateMutability": "view",
      "type": "function"
    },
    {
      "inputs": [],
      "name": "maxPerWallet",
      "outputs": [
        {
          "internalType": "uint256",
          "name": "",
          "type": "uint256"
        }
      ],
      "stateMutability": "view",
      "type": "function"
    },
    {
      "inputs": [],
      "name": "maxSupply",
      "outputs": [
        {
          "internalType": "uint256",
          "name": "",
          "type": "uint256"
        }
      ],
      "stateMutability": "view",
      "type": "function"
    },
    {
      "inputs": [
        {
          "internalType": "uint256",
          "name": "quantity_",
          "type": "uint256"
        }
      ],
      "name": "mint",
      "outputs": [],
      "stateMutability": "payable",
      "type": "function"
    },
    {
      "inputs": [],
      "name": "mintPrice",
      "outputs": [
        {
          "internalType": "uint256",
          "name": "",
          "type": "uint256"
        }
      ],
      "stateMutability": "view",
      "type": "function"
    },
    {
      "inputs": [],
      "name": "name",
      "outputs": [
        {
          "internalType": "string",
          "name": "",
          "type": "string"
        }
      ],
      "stateMutability": "view",
      "type": "function"
    },
    {
      "inputs": [],
      "name": "owner",
      "outputs": [
        {
          "internalType": "address",
          "name": "",
          "type": "address"
        }
      ],
      "stateMutability": "view",
      "type": "function"
    },
    {
      "inputs": [
        {
          "internalType": "uint256",
          "name": "tokenId",
          "type": "uint256"
        }
      ],
      "name": "ownerOf",
      "outputs": [
        {
          "internalType": "address",
          "name": "",
          "type": "address"
        }
      ],
      "stateMutability": "view",
      "type": "function"
    },
    {
      "inputs": [],
      "name": "renounceOwnership",
      "outputs": [],
      "stateMutability": "nonpayable",
      "type": "function"
    },
    {
      "inputs": [
        {
          "internalType": "address",
          "name": "from",
          "type": "address"
        },
        {
          "internalType": "address",
          "name": "to",
          "type": "address"
        },
        {
          "internalType": "uint256",
          "name": "tokenId",
          "type": "uint256"
        }
      ],
      "name": "safeTransferFrom",
      "outputs": [],
      "stateMutability": "nonpayable",
      "type": "function"
    },
    {
      "inputs": [
        {
          "internalType": "address",
          "name": "from",
          "type": "address"
        },
        {
          "internalType": "address",
          "name": "to",
          "type": "address"
        },
        {
          "internalType": "uint256",
          "name": "tokenId",
          "type": "uint256"
        },
        {
          "internalType": "bytes",
          "name": "data",
          "type": "bytes"
        }
      ],
      "name": "safeTransferFrom",
      "outputs": [],
      "stateMutability": "nonpayable",
      "type": "function"
    },
    {
      "inputs": [
        {
          "internalType": "address",
          "name": "operator",
          "type": "address"
        },
        {
          "internalType": "bool",
          "name": "approved",
          "type": "bool"
        }
      ],
      "name": "setApprovalForAll",
      "outputs": [],
      "stateMutability": "nonpayable",
      "type": "function"
    },
    {
      "inputs": [
        {
          "internalType": "string",
          "name": "baseTokenUri_",
          "type": "string"
        }
      ],
      "name": "setBaseTokenUri",
      "outputs": [],
      "stateMutability": "nonpayable",
      "type": "function"
    },
    {
      "inputs": [
        {
          "internalType": "bool",
          "name": "enabled_",
          "type": "bool"
        }
      ],
      "name": "setIsPublicMintEnabled",
      "outputs": [],
      "stateMutability": "nonpayable",
      "type": "function"
    },
    {
      "inputs": [
        {
          "internalType": "bytes4",
          "name": "interfaceId",
          "type": "bytes4"
        }
      ],
      "name": "supportsInterface",
      "outputs": [
        {
          "internalType": "bool",
          "name": "",
          "type": "bool"
        }
      ],
      "stateMutability": "view",
      "type": "function"
    },
    {
      "inputs": [],
      "name": "symbol",
      "outputs": [
        {
          "internalType": "string",
          "name": "",
          "type": "string"
        }
      ],
      "stateMutability": "view",
      "type": "function"
    },
    {
      "inputs": [
        {
          "internalType": "uint256",
          "name": "tokenId_",
          "type": "uint256"
        }
      ],
      "name": "tokenURI",
      "outputs": [
        {
          "internalType": "string",
          "name": "",
          "type": "string"
        }
      ],
      "stateMutability": "view",
      "type": "function"
    },
    {
      "inputs": [],
      "name": "totalSupply",
      "outputs": [
        {
          "internalType": "uint256",
          "name": "",
          "type": "uint256"
        }
      ],
      "stateMutability": "view",
      "type": "function"
    },
    {
      "inputs": [
        {
          "internalType": "address",
          "name": "from",
          "type": "address"
        },
        {
          "internalType": "address",
          "name": "to",
          "type": "address"
        },
        {
          "internalType": "uint256",
          "name": "tokenId",
          "type": "uint256"
        }
      ],
      "name": "transferFrom",
      "outputs": [],
      "stateMutability": "nonpayable",
      "type": "function"
    },
    {
      "inputs": [
        {
          "internalType": "address",
          "name": "newOwner",
          "type": "address"
        }
      ],
      "name": "transferOwnership",
      "outputs": [],
      "stateMutability": "nonpayable",
      "type": "function"
    },
    {
      "inputs": [
        {
          "internalType": "address",
          "name": "",
          "type": "address"
        }
      ],
      "name": "walletMints",
      "outputs": [
        {
          "internalType": "uint256",
          "name": "",
          "type": "uint256"
        }
      ],
      "stateMutability": "view",
      "type": "function"
    },
    {
      "inputs": [],
      "name": "withdraw",
      "outputs": [],
      "stateMutability": "nonpayable",
      "type": "function"
    },
    {
      "inputs": [],
      "name": "withdrawWallet",
      "outputs": [
        {
          "internalType": "address payable",
          "name": "",
          "type": "address"
        }
      ],
      "stateMutability": "view",
      "type": "function"
    }
  ],
  "bytecode": "0x60806040526040518060400160405280600981526020017f526f626f50756e6b7300000000000000000000000000000000000000000000008152506040518060400160405280600281526020017f525000000000000000000000000000000000000000000000000000000000000081525081600090816200008191906200042b565b5080600190816200009391906200042b565b505050620000b6620000aa620000e360201b60201c565b620000eb60201b60201c565b66470de4df82000060078190555060006008819055506103e86009819055506003600a8190555062000512565b600033905090565b6000600660009054906101000a900473ffffffffffffffffffffffffffffffffffffffff16905081600660006101000a81548173ffffffffffffffffffffffffffffffffffffffff021916908373ffffffffffffffffffffffffffffffffffffffff1602179055508173ffffffffffffffffffffffffffffffffffffffff168173ffffffffffffffffffffffffffffffffffffffff167f8be0079c531659141344cd1fd0a4f28419497f9722a3daafe3b4186f6b6457e060405160405180910390a35050565b600081519050919050565b7f4e487b7100000000000000000000000000000000000000000000000000000000600052604160045260246000fd5b7f4e487b7100000000000000000000000000000000000000000000000000000000600052602260045260246000fd5b600060028204905060018216806200023357607f821691505b602082108103620002495762000248620001eb565b5b50919050565b60008190508160005260206000209050919050565b60006020601f8301049050919050565b600082821b905092915050565b600060088302620002b37fffffffffffffffffffffffffffffffffffffffffffffffffffffffffffffffff8262000274565b620002bf868362000274565b95508019841693508086168417925050509392505050565b6000819050919050565b6000819050919050565b60006200030c620003066200030084620002d7565b620002e1565b620002d7565b9050919050565b6000819050919050565b6200032883620002eb565b62000340620003378262000313565b84845462000281565b825550505050565b600090565b6200035762000348565b620003648184846200031d565b505050565b5b818110156200038c57620003806000826200034d565b6001810190506200036a565b5050565b601f821115620003db57620003a5816200024f565b620003b08462000264565b81016020851015620003c0578190505b620003d8620003cf8562000264565b83018262000369565b50505b505050565b600082821c905092915050565b60006200040060001984600802620003e0565b1980831691505092915050565b60006200041b8383620003ed565b9150826002028217905092915050565b6200043682620001b1565b67ffffffffffffffff811115620004525762000451620001bc565b5b6200045e82546200021a565b6200046b82828562000390565b600060209050601f831160018114620004a357600084156200048e578287015190505b6200049a85826200040d565b8655506200050a565b601f198416620004b3866200024f565b60005b82811015620004dd57848901518255600182019150602085019450602081019050620004b6565b86831015620004fd5784890151620004f9601f891682620003ed565b8355505b6001600288020188555050505b505050505050565b61363180620005226000396000f3fe60806040526004361061019c5760003560e01c806370a08231116100ec578063a22cb4651161008a578063d5abeb0111610064578063d5abeb0114610593578063e985e9c5146105be578063f0293fd3146105fb578063f2fde38b146106385761019c565b8063a22cb46514610504578063b88d4fde1461052d578063c87b56dd146105565761019c565b80638da5cb5b116100c65780638da5cb5b1461046957806395652cfa1461049457806395d89b41146104bd578063a0712d68146104e85761019c565b806370a08231146103ea578063715018a61461042757806385d178f41461043e5761019c565b80632373ac221161015957806342842e0e1161013357806342842e0e1461032e578063453c2310146103575780636352211e146103825780636817c76c146103bf5761019c565b80632373ac22146102c557806323b872dd146102ee5780633ccfd60b146103175761019c565b80630116bc2d146101a157806301ffc9a7146101cc57806306fdde0314610209578063081812fc14610234578063095ea7b31461027157806318160ddd1461029a575b600080fd5b3480156101ad57600080fd5b506101b6610661565b6040516101c39190611ee7565b60405180910390f35b3480156101d857600080fd5b506101f360048036038101906101ee9190611f6e565b610674565b6040516102009190611ee7565b60405180910390f35b34801561021557600080fd5b5061021e610756565b60405161022b919061202b565b60405180910390f35b34801561024057600080fd5b5061025b60048036038101906102569190612083565b6107e8565b60405161026891906120f1565b60405180910390f35b34801561027d57600080fd5b5061029860048036038101906102939190612138565b61082e565b005b3480156102a657600080fd5b506102af610945565b6040516102bc9190612187565b60405180910390f35b3480156102d157600080fd5b506102ec60048036038101906102e791906121ce565b61094b565b005b3480156102fa57600080fd5b50610315600480360381019061031091906121fb565b610970565b005b34801561032357600080fd5b5061032c6109d0565b005b34801561033a57600080fd5b50610355600480360381019061035091906121fb565b610aa9565b005b34801561036357600080fd5b5061036c610ac9565b6040516103799190612187565b60405180910390f35b34801561038e57600080fd5b506103a960048036038101906103a49190612083565b610acf565b6040516103b691906120f1565b60405180910390f35b3480156103cb57600080fd5b506103d4610b80565b6040516103e19190612187565b60405180910390f35b3480156103f657600080fd5b50610411600480360381019061040c919061224e565b610b86565b60405161041e9190612187565b60405180910390f35b34801561043357600080fd5b5061043c610c3d565b005b34801561044a57600080fd5b50610453610c51565b604051610460919061229c565b60405180910390f35b34801561047557600080fd5b5061047e610c77565b60405161048b91906120f1565b60405180910390f35b3480156104a057600080fd5b506104bb60048036038101906104b6919061231c565b610ca1565b005b3480156104c957600080fd5b506104d2610cbf565b6040516104df919061202b565b60405180910390f35b61050260048036038101906104fd9190612083565b610d51565b005b34801561051057600080fd5b5061052b60048036038101906105269190612369565b610f28565b005b34801561053957600080fd5b50610554600480360381019061054f91906124d9565b610f3e565b005b34801561056257600080fd5b5061057d60048036038101906105789190612083565b610fa0565b60405161058a919061202b565b60405180910390f35b34801561059f57600080fd5b506105a8611048565b6040516105b59190612187565b60405180910390f35b3480156105ca57600080fd5b506105e560048036038101906105e0919061255c565b61104e565b6040516105f29190611ee7565b60405180910390f35b34801561060757600080fd5b50610622600480360381019061061d919061224e565b6110e2565b60405161062f9190612187565b60405180910390f35b34801561064457600080fd5b5061065f600480360381019061065a919061224e565b6110fa565b005b600b60009054906101000a900460ff1681565b60007f80ac58cd000000000000000000000000000000000000000000000000000000007bffffffffffffffffffffffffffffffffffffffffffffffffffffffff1916827bffffffffffffffffffffffffffffffffffffffffffffffffffffffff1916148061073f57507f5b5e139f000000000000000000000000000000000000000000000000000000007bffffffffffffffffffffffffffffffffffffffffffffffffffffffff1916827bffffffffffffffffffffffffffffffffffffffffffffffffffffffff1916145b8061074f575061074e8261117d565b5b9050919050565b606060008054610765906125cb565b80601f0160208091040260200160405190810160405280929190818152602001828054610791906125cb565b80156107de5780601f106107b3576101008083540402835291602001916107de565b820191906000526020600020905b8154815290600101906020018083116107c157829003601f168201915b5050505050905090565b60006107f3826111e7565b6004600083815260200190815260200160002060009054906101000a900473ffffffffffffffffffffffffffffffffffffffff169050919050565b600061083982610acf565b90508073ffffffffffffffffffffffffffffffffffffffff168373ffffffffffffffffffffffffffffffffffffffff16036108a9576040517f08c379a00000000000000000000000000000000000000000000000000000000081526004016108a09061266e565b60405180910390fd5b8073ffffffffffffffffffffffffffffffffffffffff166108c8611232565b73ffffffffffffffffffffffffffffffffffffffff1614806108f757506108f6816108f1611232565b61104e565b5b610936576040517f08c379a000000000000000000000000000000000000000000000000000000000815260040161092d90612700565b60405180910390fd5b610940838361123a565b505050565b60085481565b6109536112f3565b80600b60006101000a81548160ff02191690831515021790555050565b61098161097b611232565b82611371565b6109c0576040517f08c379a00000000000000000000000000000000000000000000000000000000081526004016109b790612792565b60405180910390fd5b6109cb838383611406565b505050565b6109d86112f3565b6000600d60009054906101000a900473ffffffffffffffffffffffffffffffffffffffff1673ffffffffffffffffffffffffffffffffffffffff1647604051610a20906127e3565b60006040518083038185875af1925050503d8060008114610a5d576040519150601f19603f3d011682016040523d82523d6000602084013e610a62565b606091505b5050905080610aa6576040517f08c379a0000000000000000000000000000000000000000000000000000000008152600401610a9d90612844565b60405180910390fd5b50565b610ac483838360405180602001604052806000815250610f3e565b505050565b600a5481565b6000806002600084815260200190815260200160002060009054906101000a900473ffffffffffffffffffffffffffffffffffffffff169050600073ffffffffffffffffffffffffffffffffffffffff168173ffffffffffffffffffffffffffffffffffffffff1603610b77576040517f08c379a0000000000000000000000000000000000000000000000000000000008152600401610b6e906128b0565b60405180910390fd5b80915050919050565b60075481565b60008073ffffffffffffffffffffffffffffffffffffffff168273ffffffffffffffffffffffffffffffffffffffff1603610bf6576040517f08c379a0000000000000000000000000000000000000000000000000000000008152600401610bed90612942565b60405180910390fd5b600360008373ffffffffffffffffffffffffffffffffffffffff1673ffffffffffffffffffffffffffffffffffffffff168152602001908152602001600020549050919050565b610c456112f3565b610c4f600061166c565b565b600d60009054906101000a900473ffffffffffffffffffffffffffffffffffffffff1681565b6000600660009054906101000a900473ffffffffffffffffffffffffffffffffffffffff16905090565b610ca96112f3565b8181600c9182610cba929190612b19565b505050565b606060018054610cce906125cb565b80601f0160208091040260200160405190810160405280929190818152602001828054610cfa906125cb565b8015610d475780601f10610d1c57610100808354040283529160200191610d47565b820191906000526020600020905b815481529060010190602001808311610d2a57829003601f168201915b5050505050905090565b600b60009054906101000a900460ff16610da0576040517f08c379a0000000000000000000000000000000000000000000000000000000008152600401610d9790612c35565b60405180910390fd5b60075481610dae9190612c84565b3414610def576040517f08c379a0000000000000000000000000000000000000000000000000000000008152600401610de690612d12565b60405180910390fd5b60095481600854610e009190612d32565b1115610e41576040517f08c379a0000000000000000000000000000000000000000000000000000000008152600401610e3890612db2565b60405180910390fd5b600a5481600e60003373ffffffffffffffffffffffffffffffffffffffff1673ffffffffffffffffffffffffffffffffffffffff16815260200190815260200160002054610e8f9190612d32565b1115610ed0576040517f08c379a0000000000000000000000000000000000000000000000000000000008152600401610ec790612e1e565b60405180910390fd5b60005b81811015610f245760006001600854610eec9190612d32565b905060086000815480929190610f0190612e3e565b9190505550610f103382611732565b508080610f1c90612e3e565b915050610ed3565b5050565b610f3a610f33611232565b8383611750565b5050565b610f4f610f49611232565b83611371565b610f8e576040517f08c379a0000000000000000000000000000000000000000000000000000000008152600401610f8590612792565b60405180910390fd5b610f9a848484846118bc565b50505050565b6060610fab82611918565b610fea576040517f08c379a0000000000000000000000000000000000000000000000000000000008152600401610fe190612ed2565b60405180910390fd5b6000600c8054610ff9906125cb565b9050116110155760405180602001604052806000815250611041565b600c61102083611984565b604051602001611031929190612ffd565b6040516020818303038152906040525b9050919050565b60095481565b6000600560008473ffffffffffffffffffffffffffffffffffffffff1673ffffffffffffffffffffffffffffffffffffffff16815260200190815260200160002060008373ffffffffffffffffffffffffffffffffffffffff1673ffffffffffffffffffffffffffffffffffffffff16815260200190815260200160002060009054906101000a900460ff16905092915050565b600e6020528060005260406000206000915090505481565b6111026112f3565b600073ffffffffffffffffffffffffffffffffffffffff168173ffffffffffffffffffffffffffffffffffffffff1603611171576040517f08c379a00000000000000000000000000000000000000000000000000000000081526004016111689061309e565b60405180910390fd5b61117a8161166c565b50565b60007f01ffc9a7000000000000000000000000000000000000000000000000000000007bffffffffffffffffffffffffffffffffffffffffffffffffffffffff1916827bffffffffffffffffffffffffffffffffffffffffffffffffffffffff1916149050919050565b6111f081611918565b61122f576040517f08c379a0000000000000000000000000000000000000000000000000000000008152600401611226906128b0565b60405180910390fd5b50565b600033905090565b816004600083815260200190815260200160002060006101000a81548173ffffffffffffffffffffffffffffffffffffffff021916908373ffffffffffffffffffffffffffffffffffffffff160217905550808273ffffffffffffffffffffffffffffffffffffffff166112ad83610acf565b73ffffffffffffffffffffffffffffffffffffffff167f8c5be1e5ebec7d5bd14f71427d1e84f3dd0314c0f7b2291e5b200ac8c7c3b92560405160405180910390a45050565b6112fb611232565b73ffffffffffffffffffffffffffffffffffffffff16611319610c77565b73ffffffffffffffffffffffffffffffffffffffff161461136f576040517f08c379a00000000000000000000000000000000000000000000000000000000081526004016113669061310a565b60405180910390fd5b565b60008061137d83610acf565b90508073ffffffffffffffffffffffffffffffffffffffff168473ffffffffffffffffffffffffffffffffffffffff1614806113bf57506113be818561104e565b5b806113fd57508373ffffffffffffffffffffffffffffffffffffffff166113e5846107e8565b73ffffffffffffffffffffffffffffffffffffffff16145b91505092915050565b8273ffffffffffffffffffffffffffffffffffffffff1661142682610acf565b73ffffffffffffffffffffffffffffffffffffffff161461147c576040517f08c379a00000000000000000000000000000000000000000000000000000000081526004016114739061319c565b60405180910390fd5b600073ffffffffffffffffffffffffffffffffffffffff168273ffffffffffffffffffffffffffffffffffffffff16036114eb576040517f08c379a00000000000000000000000000000000000000000000000000000000081526004016114e29061322e565b60405180910390fd5b6114f6838383611ae4565b61150160008261123a565b6001600360008573ffffffffffffffffffffffffffffffffffffffff1673ffffffffffffffffffffffffffffffffffffffff1681526020019081526020016000206000828254611551919061324e565b925050819055506001600360008473ffffffffffffffffffffffffffffffffffffffff1673ffffffffffffffffffffffffffffffffffffffff16815260200190815260200160002060008282546115a89190612d32565b92505081905550816002600083815260200190815260200160002060006101000a81548173ffffffffffffffffffffffffffffffffffffffff021916908373ffffffffffffffffffffffffffffffffffffffff160217905550808273ffffffffffffffffffffffffffffffffffffffff168473ffffffffffffffffffffffffffffffffffffffff167fddf252ad1be2c89b69c2b068fc378daa952ba7f163c4a11628f55a4df523b3ef60405160405180910390a4611667838383611ae9565b505050565b6000600660009054906101000a900473ffffffffffffffffffffffffffffffffffffffff16905081600660006101000a81548173ffffffffffffffffffffffffffffffffffffffff021916908373ffffffffffffffffffffffffffffffffffffffff1602179055508173ffffffffffffffffffffffffffffffffffffffff168173ffffffffffffffffffffffffffffffffffffffff167f8be0079c531659141344cd1fd0a4f28419497f9722a3daafe3b4186f6b6457e060405160405180910390a35050565b61174c828260405180602001604052806000815250611aee565b5050565b8173ffffffffffffffffffffffffffffffffffffffff168373ffffffffffffffffffffffffffffffffffffffff16036117be576040517f08c379a00000000000000000000000000000000000000000000000000000000081526004016117b5906132ce565b60405180910390fd5b80600560008573ffffffffffffffffffffffffffffffffffffffff1673ffffffffffffffffffffffffffffffffffffffff16815260200190815260200160002060008473ffffffffffffffffffffffffffffffffffffffff1673ffffffffffffffffffffffffffffffffffffffff16815260200190815260200160002060006101000a81548160ff0219169083151502179055508173ffffffffffffffffffffffffffffffffffffffff168373ffffffffffffffffffffffffffffffffffffffff167f17307eab39ab6107e8899845ad3d59bd9653f200f220920489ca2b5937696c31836040516118af9190611ee7565b60405180910390a3505050565b6118c7848484611406565b6118d384848484611b49565b611912576040517f08c379a000000000000000000000000000000000000000000000000000000000815260040161190990613360565b60405180910390fd5b50505050565b60008073ffffffffffffffffffffffffffffffffffffffff166002600084815260200190815260200160002060009054906101000a900473ffffffffffffffffffffffffffffffffffffffff1673ffffffffffffffffffffffffffffffffffffffff1614159050919050565b6060600082036119cb576040518060400160405280600181526020017f30000000000000000000000000000000000000000000000000000000000000008152509050611adf565b600082905060005b600082146119fd5780806119e690612e3e565b915050600a826119f691906133af565b91506119d3565b60008167ffffffffffffffff811115611a1957611a186123ae565b5b6040519080825280601f01601f191660200182016040528015611a4b5781602001600182028036833780820191505090505b5090505b60008514611ad857600182611a64919061324e565b9150600a85611a7391906133e0565b6030611a7f9190612d32565b60f81b818381518110611a9557611a94613411565b5b60200101907effffffffffffffffffffffffffffffffffffffffffffffffffffffffffffff1916908160001a905350600a85611ad191906133af565b9450611a4f565b8093505050505b919050565b505050565b505050565b611af88383611cd0565b611b056000848484611b49565b611b44576040517f08c379a0000000000000000000000000000000000000000000000000000000008152600401611b3b90613360565b60405180910390fd5b505050565b6000611b6a8473ffffffffffffffffffffffffffffffffffffffff16611ea9565b15611cc3578373ffffffffffffffffffffffffffffffffffffffff1663150b7a02611b93611232565b8786866040518563ffffffff1660e01b8152600401611bb59493929190613495565b6020604051808303816000875af1925050508015611bf157506040513d601f19601f82011682018060405250810190611bee91906134f6565b60015b611c73573d8060008114611c21576040519150601f19603f3d011682016040523d82523d6000602084013e611c26565b606091505b506000815103611c6b576040517f08c379a0000000000000000000000000000000000000000000000000000000008152600401611c6290613360565b60405180910390fd5b805181602001fd5b63150b7a0260e01b7bffffffffffffffffffffffffffffffffffffffffffffffffffffffff1916817bffffffffffffffffffffffffffffffffffffffffffffffffffffffff191614915050611cc8565b600190505b949350505050565b600073ffffffffffffffffffffffffffffffffffffffff168273ffffffffffffffffffffffffffffffffffffffff1603611d3f576040517f08c379a0000000000000000000000000000000000000000000000000000000008152600401611d369061356f565b60405180910390fd5b611d4881611918565b15611d88576040517f08c379a0000000000000000000000000000000000000000000000000000000008152600401611d7f906135db565b60405180910390fd5b611d9460008383611ae4565b6001600360008473ffffffffffffffffffffffffffffffffffffffff1673ffffffffffffffffffffffffffffffffffffffff1681526020019081526020016000206000828254611de49190612d32565b92505081905550816002600083815260200190815260200160002060006101000a81548173ffffffffffffffffffffffffffffffffffffffff021916908373ffffffffffffffffffffffffffffffffffffffff160217905550808273ffffffffffffffffffffffffffffffffffffffff16600073ffffffffffffffffffffffffffffffffffffffff167fddf252ad1be2c89b69c2b068fc378daa952ba7f163c4a11628f55a4df523b3ef60405160405180910390a4611ea560008383611ae9565b5050565b6000808273ffffffffffffffffffffffffffffffffffffffff163b119050919050565b60008115159050919050565b611ee181611ecc565b82525050565b6000602082019050611efc6000830184611ed8565b92915050565b6000604051905090565b600080fd5b600080fd5b60007fffffffff0000000000000000000000000000000000000000000000000000000082169050919050565b611f4b81611f16565b8114611f5657600080fd5b50565b600081359050611f6881611f42565b92915050565b600060208284031215611f8457611f83611f0c565b5b6000611f9284828501611f59565b91505092915050565b600081519050919050565b600082825260208201905092915050565b60005b83811015611fd5578082015181840152602081019050611fba565b60008484015250505050565b6000601f19601f8301169050919050565b6000611ffd82611f9b565b6120078185611fa6565b9350612017818560208601611fb7565b61202081611fe1565b840191505092915050565b600060208201905081810360008301526120458184611ff2565b905092915050565b6000819050919050565b6120608161204d565b811461206b57600080fd5b50565b60008135905061207d81612057565b92915050565b60006020828403121561209957612098611f0c565b5b60006120a78482850161206e565b91505092915050565b600073ffffffffffffffffffffffffffffffffffffffff82169050919050565b60006120db826120b0565b9050919050565b6120eb816120d0565b82525050565b600060208201905061210660008301846120e2565b92915050565b612115816120d0565b811461212057600080fd5b50565b6000813590506121328161210c565b92915050565b6000806040838503121561214f5761214e611f0c565b5b600061215d85828601612123565b925050602061216e8582860161206e565b9150509250929050565b6121818161204d565b82525050565b600060208201905061219c6000830184612178565b92915050565b6121ab81611ecc565b81146121b657600080fd5b50565b6000813590506121c8816121a2565b92915050565b6000602082840312156121e4576121e3611f0c565b5b60006121f2848285016121b9565b91505092915050565b60008060006060848603121561221457612213611f0c565b5b600061222286828701612123565b935050602061223386828701612123565b92505060406122448682870161206e565b9150509250925092565b60006020828403121561226457612263611f0c565b5b600061227284828501612123565b91505092915050565b6000612286826120b0565b9050919050565b6122968161227b565b82525050565b60006020820190506122b1600083018461228d565b92915050565b600080fd5b600080fd5b600080fd5b60008083601f8401126122dc576122db6122b7565b5b8235905067ffffffffffffffff8111156122f9576122f86122bc565b5b602083019150836001820283011115612315576123146122c1565b5b9250929050565b6000806020838503121561233357612332611f0c565b5b600083013567ffffffffffffffff81111561235157612350611f11565b5b61235d858286016122c6565b92509250509250929050565b600080604083850312156123805761237f611f0c565b5b600061238e85828601612123565b925050602061239f858286016121b9565b9150509250929050565b600080fd5b7f4e487b7100000000000000000000000000000000000000000000000000000000600052604160045260246000fd5b6123e682611fe1565b810181811067ffffffffffffffff82111715612405576124046123ae565b5b80604052505050565b6000612418611f02565b905061242482826123dd565b919050565b600067ffffffffffffffff821115612444576124436123ae565b5b61244d82611fe1565b9050602081019050919050565b82818337600083830152505050565b600061247c61247784612429565b61240e565b905082815260208101848484011115612498576124976123a9565b5b6124a384828561245a565b509392505050565b600082601f8301126124c0576124bf6122b7565b5b81356124d0848260208601612469565b91505092915050565b600080600080608085870312156124f3576124f2611f0c565b5b600061250187828801612123565b945050602061251287828801612123565b93505060406125238782880161206e565b925050606085013567ffffffffffffffff81111561254457612543611f11565b5b612550878288016124ab565b91505092959194509250565b6000806040838503121561257357612572611f0c565b5b600061258185828601612123565b925050602061259285828601612123565b9150509250929050565b7f4e487b7100000000000000000000000000000000000000000000000000000000600052602260045260246000fd5b600060028204905060018216806125e357607f821691505b6020821081036125f6576125f561259c565b5b50919050565b7f4552433732313a20617070726f76616c20746f2063757272656e74206f776e6560008201527f7200000000000000000000000000000000000000000000000000000000000000602082015250565b6000612658602183611fa6565b9150612663826125fc565b604082019050919050565b600060208201905081810360008301526126878161264b565b9050919050565b7f4552433732313a20617070726f76652063616c6c6572206973206e6f7420746f60008201527f6b656e206f776e6572206e6f7220617070726f76656420666f7220616c6c0000602082015250565b60006126ea603e83611fa6565b91506126f58261268e565b604082019050919050565b60006020820190508181036000830152612719816126dd565b9050919050565b7f4552433732313a2063616c6c6572206973206e6f7420746f6b656e206f776e6560008201527f72206e6f7220617070726f766564000000000000000000000000000000000000602082015250565b600061277c602e83611fa6565b915061278782612720565b604082019050919050565b600060208201905081810360008301526127ab8161276f565b9050919050565b600081905092915050565b50565b60006127cd6000836127b2565b91506127d8826127bd565b600082019050919050565b60006127ee826127c0565b9150819050919050565b7f5769746864726177206661696c65640000000000000000000000000000000000600082015250565b600061282e600f83611fa6565b9150612839826127f8565b602082019050919050565b6000602082019050818103600083015261285d81612821565b9050919050565b7f4552433732313a20696e76616c696420746f6b656e2049440000000000000000600082015250565b600061289a601883611fa6565b91506128a582612864565b602082019050919050565b600060208201905081810360008301526128c98161288d565b9050919050565b7f4552433732313a2061646472657373207a65726f206973206e6f74206120766160008201527f6c6964206f776e65720000000000000000000000000000000000000000000000602082015250565b600061292c602983611fa6565b9150612937826128d0565b604082019050919050565b6000602082019050818103600083015261295b8161291f565b9050919050565b600082905092915050565b60008190508160005260206000209050919050565b60006020601f8301049050919050565b600082821b905092915050565b6000600883026129cf7fffffffffffffffffffffffffffffffffffffffffffffffffffffffffffffffff82612992565b6129d98683612992565b95508019841693508086168417925050509392505050565b6000819050919050565b6000612a16612a11612a0c8461204d565b6129f1565b61204d565b9050919050565b6000819050919050565b612a30836129fb565b612a44612a3c82612a1d565b84845461299f565b825550505050565b600090565b612a59612a4c565b612a64818484612a27565b505050565b5b81811015612a8857612a7d600082612a51565b600181019050612a6a565b5050565b601f821115612acd57612a9e8161296d565b612aa784612982565b81016020851015612ab6578190505b612aca612ac285612982565b830182612a69565b50505b505050565b600082821c905092915050565b6000612af060001984600802612ad2565b1980831691505092915050565b6000612b098383612adf565b9150826002028217905092915050565b612b238383612962565b67ffffffffffffffff811115612b3c57612b3b6123ae565b5b612b4682546125cb565b612b51828285612a8c565b6000601f831160018114612b805760008415612b6e578287013590505b612b788582612afd565b865550612be0565b601f198416612b8e8661296d565b60005b82811015612bb657848901358255600182019150602085019450602081019050612b91565b86831015612bd35784890135612bcf601f891682612adf565b8355505b6001600288020188555050505b50505050505050565b7f6d696e74206e6f7420656e61626c656400000000000000000000000000000000600082015250565b6000612c1f601083611fa6565b9150612c2a82612be9565b602082019050919050565b60006020820190508181036000830152612c4e81612c12565b9050919050565b7f4e487b7100000000000000000000000000000000000000000000000000000000600052601160045260246000fd5b6000612c8f8261204d565b9150612c9a8361204d565b9250828202612ca88161204d565b91508282048414831517612cbf57612cbe612c55565b5b5092915050565b7f77726f6e67206d696e742076616c756500000000000000000000000000000000600082015250565b6000612cfc601083611fa6565b9150612d0782612cc6565b602082019050919050565b60006020820190508181036000830152612d2b81612cef565b9050919050565b6000612d3d8261204d565b9150612d488361204d565b9250828201905080821115612d6057612d5f612c55565b5b92915050565b7f736f6c64206f7574000000000000000000000000000000000000000000000000600082015250565b6000612d9c600883611fa6565b9150612da782612d66565b602082019050919050565b60006020820190508181036000830152612dcb81612d8f565b9050919050565b7f6578636565646564206d61782077616c6c6574206d696e747300000000000000600082015250565b6000612e08601983611fa6565b9150612e1382612dd2565b602082019050919050565b60006020820190508181036000830152612e3781612dfb565b9050919050565b6000612e498261204d565b91507fffffffffffffffffffffffffffffffffffffffffffffffffffffffffffffffff8203612e7b57612e7a612c55565b5b600182019050919050565b7f546f6b656e20646f6573206e6f74206578697374210000000000000000000000600082015250565b6000612ebc601583611fa6565b9150612ec782612e86565b602082019050919050565b60006020820190508181036000830152612eeb81612eaf565b9050919050565b600081905092915050565b60008154612f0a816125cb565b612f148186612ef2565b94506001821660008114612f2f5760018114612f4457612f77565b60ff1983168652811515820286019350612f77565b612f4d8561296d565b60005b83811015612f6f57815481890152600182019150602081019050612f50565b838801955050505b50505092915050565b6000612f8b82611f9b565b612f958185612ef2565b9350612fa5818560208601611fb7565b80840191505092915050565b7f2e6a736f6e000000000000000000000000000000000000000000000000000000600082015250565b6000612fe7600583612ef2565b9150612ff282612fb1565b600582019050919050565b60006130098285612efd565b91506130158284612f80565b915061302082612fda565b91508190509392505050565b7f4f776e61626c653a206e6577206f776e657220697320746865207a65726f206160008201527f6464726573730000000000000000000000000000000000000000000000000000602082015250565b6000613088602683611fa6565b91506130938261302c565b604082019050919050565b600060208201905081810360008301526130b78161307b565b9050919050565b7f4f776e61626c653a2063616c6c6572206973206e6f7420746865206f776e6572600082015250565b60006130f4602083611fa6565b91506130ff826130be565b602082019050919050565b60006020820190508181036000830152613123816130e7565b9050919050565b7f4552433732313a207472616e736665722066726f6d20696e636f72726563742060008201527f6f776e6572000000000000000000000000000000000000000000000000000000602082015250565b6000613186602583611fa6565b91506131918261312a565b604082019050919050565b600060208201905081810360008301526131b581613179565b9050919050565b7f4552433732313a207472616e7366657220746f20746865207a65726f2061646460008201527f7265737300000000000000000000000000000000000000000000000000000000602082015250565b6000613218602483611fa6565b9150613223826131bc565b604082019050919050565b600060208201905081810360008301526132478161320b565b9050919050565b60006132598261204d565b91506132648361204d565b925082820390508181111561327c5761327b612c55565b5b92915050565b7f4552433732313a20617070726f766520746f2063616c6c657200000000000000600082015250565b60006132b8601983611fa6565b91506132c382613282565b602082019050919050565b600060208201905081810360008301526132e7816132ab565b9050919050565b7f4552433732313a207472616e7366657220746f206e6f6e20455243373231526560008201527f63656976657220696d706c656d656e7465720000000000000000000000000000602082015250565b600061334a603283611fa6565b9150613355826132ee565b604082019050919050565b600060208201905081810360008301526133798161333d565b9050919050565b7f4e487b7100000000000000000000000000000000000000000000000000000000600052601260045260246000fd5b60006133ba8261204d565b91506133c58361204d565b9250826133d5576133d4613380565b5b828204905092915050565b60006133eb8261204d565b91506133f68361204d565b92508261340657613405613380565b5b828206905092915050565b7f4e487b7100000000000000000000000000000000000000000000000000000000600052603260045260246000fd5b600081519050919050565b600082825260208201905092915050565b600061346782613440565b613471818561344b565b9350613481818560208601611fb7565b61348a81611fe1565b840191505092915050565b60006080820190506134aa60008301876120e2565b6134b760208301866120e2565b6134c46040830185612178565b81810360608301526134d6818461345c565b905095945050505050565b6000815190506134f081611f42565b92915050565b60006020828403121561350c5761350b611f0c565b5b600061351a848285016134e1565b91505092915050565b7f4552433732313a206d696e7420746f20746865207a65726f2061646472657373600082015250565b6000613559602083611fa6565b915061356482613523565b602082019050919050565b600060208201905081810360008301526135888161354c565b9050919050565b7f4552433732313a20746f6b656e20616c7265616479206d696e74656400000000600082015250565b60006135c5601c83611fa6565b91506135d08261358f565b602082019050919050565b600060208201905081810360008301526135f4816135b8565b905091905056fea26469706673582212208b04abb42e9a0dcbf9559b9e514fcbfb1a9b439250427351561dcb48d4e200a164736f6c63430008110033",
  "linkReferences": {},
  "deployedLinkReferences": {}
}